:0400000016EF01F006
:10000800FACF11F0FBCF12F0E9CF13F0EACF14F0DA
:10001800E1CF15F0E2CF16F0D9CF17F0DACF18F00C
:10002800F3CF19F0F4CF1AF0F6CF1BF0F7CF1CF08E
:10003800F8CF1DF0F5CF1EF0F2AA01D001D018D0EC
:10004800F2A401D001D014D0F294000ED76E830E22
:10005800D66E010E000100016E27000E00016F230D
:10006800000E00017023000E00017123BED0BDD028
:10007800A4EC07F064EC03F0000E0D6E1F0E0C6E7E
:1000880026EC09F0206E1F6601D001D0AED09ED0BC
:100098009DD0000E00010001736F2050020AD8B4F1
:1000A80001D001D002D0A1D0A0D0106E010E3B6EBD
:1000B8001050106E000E376E1050106E000E396E14
:1000C800105093D092D03950D8B401D001D025D057
:1000D8003A3AF00E3A1620C001F0EBEC07F0015066
:1000E8003A12106E000E396E10503750010D000193
:1000F800B40EF324D96E0001000EF420DA6E3AC073
:10010800DFFF376601D001D003D03AC035F003D005
:100118003A50351A00D0372A0BD020C001F0EBEC4A
:1001280007F001503A6E106E010E396E105000D073
:100138003750050AD8A401D001D057D0106E020E4E
:100148003B6E1050106E000E376E1050106E000E81
:10015800396E10504AD049D0376601D001D007D047
:1001680020C001F0EBEC07F00150366E0AD0363AA9
:10017800F00E361620C001F0EBEC07F001503612F5
:1001880000D0372A3750020AD8A401D001D02DD088
:10019800106E030E3B6E1050106E000E376E10502E
:1001A80024D023D001D000D0372A3750030AD8A44E
:1001B80001D001D01AD0010E00010001736F106E3A
:1001C800000E3B6E105011D010D00FD03B50000ADB
:1001D800D8B45FD7010AD8B476D7030AD8B4BCD745
:1001E800010AD8B4E1D701D000D01EC0F5FF1DC068
:1001F800F8FF1CC0F7FF1BC0F6FF1AC0F4FF19C0B8
:10020800F3FF18C0DAFF17C0D9FF16C0E2FF15C008
:10021800E1FF14C0EAFF13C0E9FF12C0FBFF11C0E1
:10022800FAFF1100CFEF08F00A0D03008B0F048BC3
:100238000F058B0F068B0F076B65796E756D203D6B
:10024800200052434F4E203D20000000BD90BD923B
:10025800BD94BD96000E7F6E000E7E6E000E946EED
:10026800D388D38AD38CD350FC0B0209D36E0001F8
:10027800CE6F000E00010001726F0001CE5166ECD6
:1002880009F0020E00010001BB6F340E0001BA6FC5
:100298000001E4EC04F0D58CD586D580D582D584D0
:1002A800D59A000ED76E830ED66ED58EF28A020EC0
:1002B80000010001C86F4A0E0001C76F0001000E5F
:1002C80000010001CA6F0001DB0E0001C96F0001C7
:1002D800D6EC05F0D0CFC7F00001000E00010001F8
:1002E800C96F0001DB0E0001C86F000100EC09F0C6
:1002F800D09EF28CF28E0001CE6F000E000100013C
:10030800B96F0001CE510001CE6F000E000100014F
:10031800DE6F0001CE51000E00010001D66F000E05
:100328000001D76F000E0001D86F000E0001D96FD1
:10033800B3D1B2D1000100017351D8B401D001D0BA
:10034800ABD1000E00010001736F0001CE6F010EEA
:1003580000010001DA6F0001CE51000E000100011A
:10036800DD6F000E0001DC6F00010001DD51800A25
:10037800800F040ED8B4DC5DD8A001D001D002D023
:1003880090D08FD00001CE6F010E00010001DA6F0E
:100398000001CE51000E00010001E06F000E0001C7
:1003A800DF6F00010001E051800A800F050ED8B40C
:1003B800DF5DD8A001D001D002D059D058D0DCC020
:1003C800BAF0DDC0BBF0000E00010001BD6F050EE4
:1003D8000001BC6F00019BEC08F00001E10E000178
:1003E8000001BA250001CE6F0001000E00010001D6
:1003F800BB210001CF6F00010001DF510001CE25B4
:10040800D96E00010001E0510001CF21DA6EDF5002
:100418000001D06F0001B40E00010001DF25D96E84
:100428000001000E00010001E021DA6EDF5000013A
:10043800D019D8B401D001D009D00001CE6F000E78
:1004480000010001DA6F0001CE5111D00001000156
:10045800DF4BE02B00010001E051800A800F050E00
:10046800D8B4DF5DD8A001D001D0A9D700D0000151
:100478000001DA05D8A401D001D002D012D011D0E1
:1004880000010001DC4BDD2B00010001DD51800A79
:10049800800F040ED8B4DC5DD8A001D001D072D78B
:1004A80000D000010001DA51D8B401D001D023D026
:1004B800000E00010001BB6FA00E0001BA6F000121
:1004C800CE6F000E00010001BC6F0001CE51000E7E
:1004D80000010001BE6F500E0001BD6F000127EC46
:1004E80008F00001CE6F010E00010001726F0001DB
:1004F800CE5101D000D0020E00010001C86F400E9D
:100508000001C76F0001000E00010001CA6F000161
:10051800DE0E0001C96F0001D6EC05F00001000EE7
:1005280000010001C86F0001B40E0001C76F00018F
:10053800000E00010001CA6F0001DE0E0001C96F44
:100548000001D6EC05F0020E00010001C86F500E44
:100558000001C76F0001000E00010001CA6F000111
:10056800DE0E0001C96F0001D6EC05F095D094D0DD
:1005780084EC09F00009D8B401D001D08DD0000175
:10058800CE6F020E00010001726F0001CE516EC0E5
:100598006AF06FC06BF070C06CF071C06DF07CD009
:1005A8007BD000016AC0CEF000016BC0CFF0000123
:1005B8006CC0D0F000016DC0D1F00001CE1FCF1F7C
:1005C800D01FD11FCE2B000ECF23D023D123000163
:1005D80000016E510001CE250001D26F000100011B
:1005E8006F510001CF210001D36F0001000170514C
:1005F8000001D0210001D46F0001000171510001F8
:10060800D1210001D56FA10E0001D25D860ED3590C
:10061800010ED459000E0001D559D8A001D001D03F
:100628003BD0000E00010001BB6FA00E0001BA6FA5
:100638000001CE6F010E00010001BC6F0001CE5118
:10064800000E00010001BE6F000E0001BD6F000129
:1006580027EC08F00001CE6F030E00010001726F55
:100668000001CE5119D018D084EC09F00009D8B493
:1006780001D001D011D00001CE6F000E00010001A1
:10068800726F0001CE51000E00010001736F03EC80
:1006980007F002D001D000D0000100017251000A19
:1006A800D8B448D6010AD8B463D7030AD8B479D7DE
:1006B800010AD8B4D9D7F0D7EFD7EED716EF01F0A3
:1006C8009EA001D001D07BD19DA001D001D077D1CF
:1006D8009E902DC0CEFF2EC0CFFF57D123C001F072
:1006E800010E026E012A02D0D8900236012EFCD7E4
:1006F80021C0D9FF22C0DAFF0250DF1226C001F064
:10070800010E026E012A02D0D8900236012EFCD7C3
:100718000250FF0A036E24C0D9FF25C0DAFF035038
:10072800DF1629C001F0010E026E012A02D0D8900E
:100738000236012EFCD727C0D9FF28C0DAFF0250A5
:10074800DF122CC001F0010E026E012A02D0D890EF
:100758000236012EFCD70250FF0A036E2AC0D9FFC9
:100768002BC0DAFF0350DF1606D0312A1CD1030E46
:10077800316E19D118D13250000AD8B4F6D7010A0F
:10078800D8B4F5D710D10FD123C001F0010E026EF5
:10079800012A02D0D8900236012EFCD721C0D9FFF9
:1007A80022C0DAFF0250DF1226C001F0010E026EED
:1007B800012A02D0D8900236012EFCD70250FF0A37
:1007C800036E24C0D9FF25C0DAFF0350DF1629C005
:1007D80001F0010E026E012A02D0D8900236012ED5
:1007E800FCD70250FF0A036E27C0D9FF28C0DAFFE2
:1007F8000350DF162CC001F0010E026E012A02D050
:10080800D8900236012EFCD72AC0D9FF2BC0DAFFB8
:100818000250DF1205D0312AC6D03106C4D0C3D069
:100828003250000AD8B4F7D7010AD8B4F6D7BBD0EB
:10083800BAD023C001F0010E026E012A02D0D8906E
:100848000236012EFCD70250FF0A036E21C0D9FFE1
:1008580022C0DAFF0350DF1626C001F0010E026E37
:10086800012A02D0D8900236012EFCD724C0D9FF25
:1008780025C0DAFF0250DF1229C001F0010E026E16
:10088800012A02D0D8900236012EFCD70250FF0A66
:10089800036E27C0D9FF28C0DAFF0350DF162CC02B
:1008A80001F0010E026E012A02D0D8900236012E04
:1008B800FCD72AC0D9FF2BC0DAFF0250DF1205D0BF
:1008C800312A71D031066FD06ED03250000AD8B4B8
:1008D800F7D7010AD8B4F6D766D065D023C001F09F
:1008E800010E026E012A02D0D8900236012EFCD7E2
:1008F8000250FF0A036E21C0D9FF22C0DAFF03505D
:10090800DF1626C001F0010E026E012A02D0D8902F
:100918000236012EFCD724C0D9FF25C0DAFF0250C9
:10092800DF1229C001F0010E026E012A02D0D89010
:100938000236012EFCD727C0D9FF28C0DAFF0250A3
:10094800DF122CC001F0010E026E012A02D0D890ED
:100958000236012EFCD70250FF0A036E2AC0D9FFC7
:100968002BC0DAFF0350DF1606D0000E316E1BD005
:10097800310619D018D03250000AD8B4F6D7010A77
:10098800D8B4F6D710D00FD00ED03150000AD8B452
:10099800A5D6010AD8B4F8D6030AD8B44AD7010AAA
:1009A800D8B49CD700D02F06D8A0300630502F10CE
:1009B800D8A401D001D003D09D9001D000D012005E
:1009C800CD8ECF0ECD16CD92CD80000E316E000E9D
:1009D800306E000E2F6E0001BAC0F6FF0001BBC0DA
:1009E800F7FF0900F5CFBCF00900F5CFBDF009000D
:1009F800F5CFBEF0BCC021F0BDC022F0BEC023F0D0
:100A0800030E00010001BA250001BC6F000E0001B1
:100A18000001BB210001BD6FBCC0F6FFBDC0F7FFE0
:100A28000900F5CFBEF00900F5CFBFF00900F5CFFA
:100A3800C0F0BEC024F0BFC025F0C0C026F0060E2E
:100A480000010001BA250001BC6F000E0001000181
:100A5800BB210001BD6FBCC0F6FFBDC0F7FF090098
:100A6800F5CFBEF00900F5CFBFF00900F5CFC0F013
:100A7800BEC027F0BFC028F0C0C029F0090E000191
:100A88000001BA250001BC6F000E00010001BB2166
:100A98000001BD6FBCC0F6FFBDC0F7FF0900F5CF70
:100AA800BEF00900F5CFBFF00900F5CFC0F0BEC019
:100AB8002AF0BFC02BF0C0C02CF01200BEC0BAF0A4
:100AC800BFC0BBF0000158EC07F00009D8B401D052
:100AD80001D008D0C1C0D9FFC2C0DAFF010EDF6E55
:100AE80060D05FD0000120EE04F00001BE51D9268D
:100AF8000001BF51DA22DECFC3F0DDCFC4F0BEC0A3
:100B0800D9FFBFC0DAFFDECFC5F0DDCFC6F00001E8
:100B1800C3510001C525D96E0001C4510001C62189
:100B2800DA6E0001C0C0DFFF000120EE04F0000112
:100B3800BE51D9260001BF51DA22DE2A000EDD227D
:100B4800000120EE02F00001BE51D9260001BF517C
:100B5800DA22000110EE04F00001BE51E126000186
:100B6800BF51E222E652DE52DD50E55C02E1DF5081
:100B7800E75CD8A001D001D00ED0000120EE04F02F
:100B88000001BE51D9260001BF51DA22000EDE6EE7
:100B9800000EDD6E00D0C1C0D9FFC2C0DAFF000E62
:100BA800DF6E1200C7C0CBF0C8C0CCF04ED001D069
:100BB80000D0000E00010001BB6F3C0E0001BA6FAF
:100BC800000158EC07F00009D8A401D001D0F1D7F2
:100BD80000D0000E00010001BF6F3C0E0001BE6F87
:100BE80000010001CB51F66EE96E010EEA6E0001BC
:100BF8000001CC51EA6403D0EA6EEF5003D0F76EDF
:100C08000800F55000010001C06F0001000E00014E
:100C18000001C26F0001CD0E0001C16F000162EC3E
:100C280005F000010001CD51D8B401D001D007D0A2
:100C3800C9C0D9FFCAC0DAFF010EDF6E00D09D8897
:100C480000010001CB4BCC2B00D000010001CB519F
:100C5800F66EE96E010EEA6E00010001CC51EA64FD
:100C680003D0EA6EEF5003D0F76E0800F550000984
:100C7800D8A401D001D09DD700D0120003C001F044
:100C880004C002F04AEC09F00009D8B401D001D040
:100C980009D005C0D9FF06C0DAFF020EDF6E000ECC
:100CA8004ED04DD020EE06F00350D9260450DA225B
:100CB800DECF07F0DDCF08F003C0D9FF04C0DAFFAC
:100CC800DECF09F0DDCF0AF007500924D96E0850AD
:100CD8000A20DA6EDF500B6E20EE06F00350D9269C
:100CE8000450DA22DE2A000EDD2220EE02F0035044
:100CF800D9260450DA2210EE06F00350E1260450FB
:100D0800E222E652DE52DD50E55C02E1DF50E75CAC
:100D1800D8A001D001D00BD020EE06F00350D92680
:100D28000450DA22000EDE6E000EDD6E00D005C023
:100D3800D9FF06C0DAFF000EDF6E0B5000D012009C
:100D480005C001F006C002F061EC08F00009D8B453
:100D580001D001D008D008C0D9FF09C0DAFF010EC0
:100D6800DF6E4CD04BD020EE04F00550D92606504B
:100D7800DA22DECF0AF0DDCF0BF005C0D9FF06C0BE
:100D8800DAFFDECF0CF0DDCF0DF00A500C24D96E5F
:100D98000B500D20DA6E07C0DFFF20EE04F005507F
:100DA800D9260650DA22DE2A000EDD2220EE02F0D5
:100DB8000550D9260650DA2210EE04F00550E12637
:100DC8000650E222E652DE52DD50E55C02E1DF50D9
:100DD800E75CD8A001D001D00BD020EE04F005507C
:100DE800D9260650DA22000EDE6E000EDD6E00D027
:100DF80008C0D9FF09C0DAFF000EDF6E120023C059
:100E0800BAF0FE0E0001BB6F0001BA2B03D000013F
:100E1800D890BB370001BA2FFAD721C0D9FF22C01A
:100E2800DAFF0001BB51DF1626C0BAF0FE0E000142
:100E3800BB6F0001BA2B03D00001D890BB3700016B
:100E4800BA2FFAD724C0D9FF25C0DAFF0001BB5159
:100E5800DF1629C0BAF0FE0E0001BB6F0001BA2BE5
:100E680003D00001D890BB370001BA2FFAD727C0AA
:100E7800D9FF28C0DAFF0001BB51DF162CC0BAF039
:100E8800FE0E0001BB6F0001BA2B03D00001D89001
:100E9800BB370001BA2FFAD72AC0D9FF2BC0DAFF17
:100EA8000001BB51DF161200000120EE04F0000122
:100EB800BA51D9260001BB51DA220001DECFBCF0BD
:100EC8000001DDCFBDF0000120EE02F00001BA51B3
:100ED800D9260001BB51DA22000110EEBCF0E62A47
:100EE800000EE522E652DE52DD50E55C02E1DF50FD
:100EF800E75CD8A001D001D008D0000E00010001A5
:100F0800BD6F000E0001BC6F00D0000120EE06F09E
:100F18000001BA51D9260001BB51DA220001DE5284
:100F28000001BD51DD180001BCC0E8FFD8B4DF18CE
:100F3800D8B401D002D0010E01D0000E00D01200AA
:100F48009DA801D001D01DD09EA801D001D019D0F4
:100F5800000E026E3C0E016E4AEC09F00009D8A49E
:100F680001D001D00CD0000E046E3C0E036E000EB2
:100F7800066E0E0E056E42EC06F0AD6E02D09D9820
:100F880000D09DAA01D001D021D09EAA01D001D0C5
:100F98001DD00001000E026E0001F50E016E61EC1D
:100FA80008F00009D8A401D001D010D00001000E2B
:100FB800066E0001F50E056EAECF07F0000E096E45
:100FC8000F0E086EA4EC06F001D000D012002F0E10
:100FD800016401D001D00DD03A0E016001D001D0DA
:100FE80008D0D00E0124016E026AFF0E02222AD018
:100FF80029D0400E016401D001D00DD0470E016008
:1010080001D001D008D0C90E0124016E026AFF0E7A
:10101800022218D017D0600E016401D001D00DD083
:10102800670E016001D001D008D0F00E0124016ED6
:10103800026AFF0E022206D005D0000E026EFF0ED5
:10104800016E00D0120032C034F0BAC02FF0BBC01D
:1010580030F0010E00010001BD5DCB0E0001BE594C
:10106800D8A001D001D005D0CB0E2E6E000E2D6E6B
:1010780004D0BDC02DF0BEC02EF02DC0CEFF2EC0B6
:10108800CFFFBCC032F032503418D8B401D001D0F0
:1010980012D006D005D0312A0BD0310609D008D09D
:1010A8003250000AD8B4F7D7010AD8B4F6D700D01E
:1010B800030E311600D09D80120020EE04F001507E
:1010C800D9260250DA22DECF03F0DDCF04F020EE7D
:1010D80002F00150D9260250DA2210EE03F0E62A77
:1010E800000EE522E652DE52DD50E55C02E1DF50FB
:1010F800E75CD8A001D001D005D0000E046E000E28
:10110800036E00D020EE06F00150D9260250DA22F4
:10111800DE520450DD1803C0E8FFD8B4DF18D8B495
:1011280001D002D0010E01D0000E00D01200000E36
:1011380000010001BF6F000E0001BE6F00D000016A
:101148000001BAA101D001D00DD000010001BC51AD
:1011580000010001BE2700010001BD51000100018E
:10116800BF2300D0000100010001D890BC37BD3773
:10117800000100010001D890BB33BA33000100011F
:10118800BB51BA11D8A401D001D0D9D7BEC0BAF08A
:10119800BFC0BBF0120000EE60F05A0EEE6AE8061F
:1011A800FDE100EE21F01B0EEE6AE806FDE1EC0E13
:1011B800F66E120EF76E000EF86E00EEE1F010EE0D
:1011C8001CF00900F5CFEEFFE550E150FAE11C0EE6
:1011D800F66E130EF76E000EF86E00EE3CF010EE91
:1011E80008F00900F5CFEEFFE550E150FAE1000EF6
:1011F800F86E00012AEF01F0000E00010001BF6F38
:101208003C0E0001BE6FC7C0C0F00001000E000117
:101218000001C26F0001CA0E0001C16F000162EC3B
:1012280005F000010001CA51D8B401D001D008D09E
:10123800C8C0D9FFC9C0DAFF010EDF6E02D001D0E5
:101248009D8812000001000E046E0001F50E036E69
:10125800000E066E0F0E056E42EC06F00E6E0F5075
:10126800D8B401D001D009D00CC0D9FF0DC0DAFF25
:10127800010EDF6E000E09D008D00CC0D9FF0DC0DA
:10128800DAFF000EDF6E0E5000D0120020EE06F0DE
:101298000150D9260250DA2210EE04F00150E1265E
:1012A8000250E222E652DE52DD50E518DFCFE8FFB9
:1012B800D8B4E718D8B401D002D0010E01D0000E7E
:1012C80000D01200B896B89AAC94190EAF6E938AF3
:1012D800938EAC8AAC98AB8EAC9CAB9CAB889D8A49
:1012E800F28C120066006C445666006C29C96600D0
:1012F8006C06AA66006BF69B7400200000000000D4
:1013080030502F10D8B401D002D0010E01D0000EF9
:0C13180000D01200940020000000000033
:020000040020DA
:08000000FFFFFFFFFFFFFFFF00
:020000040030CA
:0E000000FF081F1EFF8081FF03C003E00340C6
:00000001FF
